:100000000C942F000C94DF030C94DF030C94DF039B
:100010000C94DF030C94DF030C94DF030C94DF03D8
:100020000C94DF030C94DF030C94DF030C94DF03C8
:100030000C94DF030C94DF030C94DF030C94DF03B8
:100040000C94DF030C94DF030C94DF030C94DF03A8
:100050000C94DF030060007480007400768011242B
:100060001FBECFE5D8E0DEBFCDBFE4E5F0E040E065
:1000700017C0B591A59135912591059107FD0CC04B
:1000800095918591EF01F92FE82F05900D92A21718
:10009000B307D9F7FE0104C01D92A217B307E1F719
:1000A000EE35F40731F70E9495000C945700F89450
:0200B000FFCF80
:1000B2006C65642031206F6E2E000000000000008D
:1000C200000000006C65642031206F6E2E2E00004F
:1000D20000000000000000006C65642032206F6E9A
:1000E2002E00000000000000000000006C6564208B
:1000F20032206F6E2E2E0000000000000000000073
:100102006C65642031206F66662E000000000000DE
:10011200000000006C65642032206F66662E0000CD
:080122000000000000000000D5
:10012A00CF93DF93CDB7DEB7CE5AD1090FB6F89485
:10013A00DEBF0FBECDBF80E090E00E94D10361E038
:10014A0070E087E090E00E94C60222EB30E040E0D7
:10015A008AE0F901DE011196742F0E94AD033AE09C
:10016A00FE013B96DF01232F1D922A95E9F70F2EF8
:10017A00F6ECCF2EF0E0DF2EF0E0EF2EF02D8BE044
:10018A00F601DE0155967E2D0E94AD0329E0FE019F
:10019A00B096DF01422F1D924A95E9F70F2EFAED2C
:1001AA00CF2EF0E0DF2EF0E0EF2EF02D8AE0F60100
:1001BA00DE0199967E2D0E94AD03FE01F396DF01C2
:1001CA001D923A95E9F70F2EFEEECF2EF0E0DF2EC4
:1001DA00F0E0EF2EF02D8BE0F601DE01DD967E2DAC
:1001EA000E94AD03FE01E85BFF4FDF01322F1D9233
:1001FA003A95E9F70F2EF2E0CF2EF1E0DF2EF0E08C
:10020A00EF2EF02D8BE0F601DE01AF5ABF4F7E2DA7
:10021A000E94AD03E1E5F0E0EC0FFD1F3B96DF0124
:10022A00322F1D923A95E9F70F2EF6E1CF2EF1E023
:10023A00DF2EF0E0EF2EF02D8BE0F601DE01AB5958
:10024A00BF4F7E2D0E94AD03E5E6F0E0EC0FFD1FE7
:10025A003B96DF011D922A95E9F707E610E023E0B5
:10026A0030E040E050E060E070E080E090E00E9422
:10027A002A030E94E8029E0127583F4FCF55DF4FBD
:10028A0039832883C15AD04028523109FE01EB59DB
:10029A00FF4FCF55DF4F0881C15AD040CE55DF4FAF
:1002AA001881C25AD040CF55DF4F48815981C15A6F
:1002BA00D0403A0160E8862EAE014F5F5F4FCA0117
:1002CA00A0E8CA55DF4F88839983AA83C65AD040CB
:1002DA00A90160E8C755DF4F488359836A83C95A21
:1002EA00D040CF01A0E8C455DF4F88839983AA8301
:1002FA00CC5AD0401E0199E2290E311CA0E84A2EA0
:10030A005E01B5E1AB0EB11C20E8C22ECE01CD963E
:10031A00AC0160E8CD55DF4F488359836A83C35ADD
:10032A00D0400E944A03AC0160E8802F912F0E94BE
:10033A009103402F512F60E083E00E946603482D0D
:10034A009301CA55DF4F688179818A81C65AD040A4
:10035A000E940903F82E482D9301842DB1010E94B1
:10036A000903D82E482D9301C755DF4F688179813B
:10037A008A81C95AD0400E940903982E482D9301B8
:10038A00C455DF4F688179818A81CC5AD0400E9456
:10039A000903582E482D93018C2DB5010E9409039B
:1003AA00E82E482D9301CD55DF4F688179818A81E6
:1003BA00C35AD0400E940903FF2011F0E1100EC079
:1003CA0080E090E00E94C6030E94A003802F912F34
:1003DA000E948203EA961FAEEA9733C0DD2011F02D
:1003EA0081110EC081E090E00E94C6030E94A00322
:1003FA00802F912F0E948203EA961FAEEA9721C0AE
:10040A0091100FC063E080E090E00E9433020E94E6
:10041A00A003802F912F0E948203EA961FAEEA97CB
:10042A0010C051100EC063E081E090E00E943302D8
:10043A000E94A003802F912F0E948203EA961FAE8A
:10044A00EA9787E090E00E94BA03019709F069CF22
:0C045A00EA961FAEEA970E94A0034CCF68
:100466006230B9F018F4613031F008956330F9F074
:10047600643059F108954BB321E030E0B90102C070
:10048600660F771F8A95E2F7CB01809584238BBB95
:10049600089548B321E030E0B90102C0660F771F26
:1004A6008A95E2F7CB018095842388BB089545B3EE
:1004B60021E030E0B90102C0660F771F8A95E2F7A6
:1004C600CB018095842385BB089542B321E030E0BB
:1004D600B90102C0660F771F8A95E2F7CB018095B6
:0604E600842382BB08958F
:1004EC009BB39F70282F207F922B9BBBC198C39AE4
:1004FC0035E33A95F1F70000C398EFE3FFE131974C
:10050C00F1F700C000002BB32F70F0E18F9FC001FA
:10051C001124822B8BBBC39A35E03A95F1F700007E
:10052C00C3988FE39FE10197F1F700C00000089595
:10053C009BB39F70282F207F922B9BBBC19AC39A91
:10054C0035E33A95F1F70000C398EFE1F3E031970A
:10055C00F1F700C000002BB32F70F0E18F9FC001AA
:10056C001124822B8BBBC39A35E33A95F1F700002B
:10057C00C3988FE59DE60197F1F700C00000089540
:10058C006115710521F06130710571F0089541B369
:10059C0021E030E0B90102C0660F771F8A95E2F7BF
:1005AC00CB01842B81BB089541B321E030E0B9012C
:1005BC0002C0660F771F8A95E2F7CB0180958423E2
:0405CC0081BB089552
:1005D0008FEF8ABB8FE087BBC2982FEF89EF90E047
:1005E000215080409040E1F700C0000083E30E946A
:1005F000760282E30E94760288E20E9476028CE014
:100600000E94760286E00E94760281E00E947602D5
:0206100008954B
:10061200CF92DF92EF926B01E82EF6018491E7FC14
:100622008081F901549147FD508185130BC08823C5
:1006320041F08FEFC81AD80AE80A2F5F3F4F4F4F99
:10064200ECCF582F90E0851B9109EF90DF90CF906F
:02065200089509
:100654000F931F9310BD09B9E8E1EAB9220F331FC4
:1006640062957295707F7627607F7627622B440FA0
:10067400551F440F551F440F551F462B9695982F11
:10068400882797958795482B40BD1F910F91089512
:10069400CF93DF9380E690E090937500809374008D
:1006A40005C02196D0937500C0937400C091740066
:1006B400D09175000E94DB0388838E3291F780E627
:0806C40090E0DF91CF91089551
:1006CC00CF93DF93EA01811108C0603178F4862F53
:1006DC008F7080680E94760209C0813039F46031D5
:1006EC0028F4862F8F70806C0E947602CE010E94B7
:0806FC008203DF91CF91089504
:10070400CF93DF93EC018881882331F021960E94F6
:0E0714009E0289918111FBCFDF91CF91089554
:100722009A01462FDC01F901549147FD50815D93F6
:0E073200552321F02F5F3F4F4F4FF5CF089515
:1007400081E00E9476028FE39FE10197F1F700C0FC
:0A075000000080E80E947602089580
:10075A00992777FD05C005900D920197E1F7089555
:0A076A0001900D920197E1F7089548
:1007740020B330E0A90102C0559547958A95E2F768
:08078400CA0181709927089554
:10078C0095B321E030E002C0220F331F8A95E2F7C7
:06079C00292B25BB089586
:1007A200009719F0019721F008958FEF84BB089507
:0407B20014BA0895D8
:0807B6005F9BFECF8CB108959A
:0407BE000C94000097
:00000001FF
