:100000000C942F000C94B7010C94B7010C94B70119
:100010000C94B7010C94B7010C94B7010C94B70180
:100020000C94B7010C94B7010C94B7010C94B70170
:100030000C94B7010C94B7010C94B7010C94B70160
:100040000C94B7010C94B7010C94B7010C94B70150
:100050000C94B70100600074800074007680112455
:100060001FBECFE5D8E0DEBFCDBFE4E5F0E040E065
:1000700017C0B591A59135912591059107FD0CC04B
:1000800095918591EF01F92FE82F05900D92A21718
:10009000B307D9F7FE0104C01D92A217B307E1F719
:1000A000EE35F40731F70E946D000C945700F89478
:0200B000FFCF80
:1000B2006C65642031206F6E202E0000000000006D
:1000C200000000006C65642032206F6E202E00005C
:0800D200000000000000000026
:1000DA00CF93DF93CDB7DEB7EC970FB6F894DEBFB8
:1000EA000FBECDBF22EB30E040E08BE0F901DE012C
:1000FA001196742F0E949B0129E0FE013C96DF01B4
:10010A00822F1D928A95E9F70F2EF6ECCF2EF0E09A
:10011A00DF2EF0E0EF2EF02D8BE0F601DE01559692
:10012A007E2D0E949B01FE01B096DF011D922A9549
:10013A00E9F707E610E023E030E040E050E060E055
:10014A0070E080E090E00E9450016E01B9E2CB0EAF
:10015A00D11C3E0125E1620E711CBC2CFD2C80E8ED
:10016A00E82ECE0101961C01A0E84A2EB0E88B2E9B
:10017A000E947001AC0160E88B2D9F2D0E948C01BA
:10018A004E2D9601842DB1010E942F01082F4E2D6C
:10019A009601882DB3010E942F01182F01110AC060
:1001AA0080E090E00E94A80165B381E090E00E949F
:1001BA00EC0019A61111DCCF81E090E00E94A801A1
:0E01CA0065B380E090E00E94EC0019A6D1CF52
:1001D8006230B9F018F4613031F008956330F9F005
:1001E800643059F108954BB321E030E0B90102C001
:1001F800660F771F8A95E2F7CB01809584238BBB26
:10020800089548B321E030E0B90102C0660F771FB6
:100218008A95E2F7CB018095842388BB089545B37E
:1002280021E030E0B90102C0660F771F8A95E2F736
:10023800CB018095842385BB089542B321E030E04B
:10024800B90102C0660F771F8A95E2F7CB01809546
:06025800842382BB08951F
:10025E00CF92DF92EF926B01E82EF6018491E7FCCC
:10026E008081F901549147FD508185130BC088237D
:10027E0041F08FEFC81AD80AE80A2F5F3F4F4F4F51
:10028E00ECCF582F90E0851B9109EF90DF90CF9027
:02029E000895C1
:1002A0000F931F9310BD09B9E8E1EAB9220F331F7C
:1002B00062957295707F7627607F7627622B440F58
:1002C000551F440F551F440F551F462B9695982FC9
:1002D000882797958795482B40BD1F910F910895CA
:1002E000CF93DF9380E690E0909375008093740045
:1002F00005C02196D0937500C0937400C09174001E
:10030000D09175000E94B30188838E3291F780E608
:0803100090E0DF91CF91089508
:100318009A01462FDC01F901549147FD50815D9304
:0E032800552321F02F5F3F4F4F4FF5CF089523
:10033600992777FD05C005900D920197E1F708957D
:0A03460001900D920197E1F7089570
:1003500095B321E030E002C0220F331F8A95E2F707
:06036000292B25BB0895C6
:080366005F9BFECF8CB10895EE
:04036E000C940000EB
:00000001FF
